{
  "_format": "hh-sol-artifact-1",
  "contractName": "FromL1_ControlL2Greeter",
  "sourceName": "contracts/FromL1_ControlL2Greeter.sol",
  "abi": [
    {
      "inputs": [
        {
          "internalType": "string",
          "name": "_greeting",
          "type": "string"
        },
        {
          "internalType": "address",
          "name": "crossDomainMessengerAddr",
          "type": "address"
        },
        {
          "internalType": "address",
          "name": "greeterL2Addr",
          "type": "address"
        }
      ],
      "name": "setGreeting",
      "outputs": [],
      "stateMutability": "nonpayable",
      "type": "function"
    }
  ],
  "bytecode": "0x608060405234801561001057600080fd5b5061048c806100206000396000f3fe608060405234801561001057600080fd5b506004361061002b5760003560e01c80638b37270914610030575b600080fd5b61004a60048036038101906100459190610228565b61004c565b005b606084843360405160240161006393929190610309565b6040516020818303038152906040527f8d86c2ad000000000000000000000000000000000000000000000000000000007bffffffffffffffffffffffffffffffffffffffffffffffffffffffff19166020820180517bffffffffffffffffffffffffffffffffffffffffffffffffffffffff838183161783525050505090508273ffffffffffffffffffffffffffffffffffffffff16633dbb202b8383620f42406040518463ffffffff1660e01b815260040161012293929190610418565b600060405180830381600087803b15801561013c57600080fd5b505af1158015610150573d6000803e3d6000fd5b505050505050505050565b600080fd5b600080fd5b600080fd5b600080fd5b600080fd5b60008083601f84011261018a57610189610165565b5b8235905067ffffffffffffffff8111156101a7576101a661016a565b5b6020830191508360018202830111156101c3576101c261016f565b5b9250929050565b600073ffffffffffffffffffffffffffffffffffffffff82169050919050565b60006101f5826101ca565b9050919050565b610205816101ea565b811461021057600080fd5b50565b600081359050610222816101fc565b92915050565b600080600080606085870312156102425761024161015b565b5b600085013567ffffffffffffffff8111156102605761025f610160565b5b61026c87828801610174565b9450945050602061027f87828801610213565b925050604061029087828801610213565b91505092959194509250565b600082825260208201905092915050565b82818337600083830152505050565b6000601f19601f8301169050919050565b60006102d9838561029c565b93506102e68385846102ad565b6102ef836102bc565b840190509392505050565b610303816101ea565b82525050565b600060408201905081810360008301526103248185876102cd565b905061033360208301846102fa565b949350505050565b600081519050919050565b600082825260208201905092915050565b60005b8381101561037557808201518184015260208101905061035a565b83811115610384576000848401525b50505050565b60006103958261033b565b61039f8185610346565b93506103af818560208601610357565b6103b8816102bc565b840191505092915050565b6000819050919050565b600063ffffffff82169050919050565b6000819050919050565b60006104026103fd6103f8846103c3565b6103dd565b6103cd565b9050919050565b610412816103e7565b82525050565b600060608201905061042d60008301866102fa565b818103602083015261043f818561038a565b905061044e6040830184610409565b94935050505056fea264697066735822122018b9ba894402e2dc7e7dd4fa385c1ab6b03710de3f4c30cb0ef2a020b50320d664736f6c63430008080033",
  "linkReferences": {},
  "deployedLinkReferences": {}
}