{
  "_format": "hh-sol-artifact-1",
  "contractName": "FromL1_ControlL2Greeter",
  "sourceName": "contracts/FromL1_ControlL2Greeter.sol",
  "abi": [
    {
      "inputs": [
        {
          "internalType": "string",
          "name": "_greeting",
          "type": "string"
        },
        {
          "internalType": "address",
          "name": "crossDomainMessengerAddr",
          "type": "address"
        },
        {
          "internalType": "address",
          "name": "greeterL2Addr",
          "type": "address"
        }
      ],
      "name": "setGreeting",
      "outputs": [],
      "stateMutability": "nonpayable",
      "type": "function"
    }
  ],
  "bytecode": "0x608060405234801561001057600080fd5b5061043b806100206000396000f3fe608060405234801561001057600080fd5b506004361061002b5760003560e01c80638b37270914610030575b600080fd5b61004a600480360381019061004591906101ba565b61004c565b005b6060848433604051602401610063939291906102e8565b6040516020818303038152906040527f8d86c2ad000000000000000000000000000000000000000000000000000000007bffffffffffffffffffffffffffffffffffffffffffffffffffffffff19166020820180517bffffffffffffffffffffffffffffffffffffffffffffffffffffffff838183161783525050505090508273ffffffffffffffffffffffffffffffffffffffff16633dbb202b8383620f42406040518463ffffffff1660e01b8152600401610122939291906102aa565b600060405180830381600087803b15801561013c57600080fd5b505af1158015610150573d6000803e3d6000fd5b505050505050505050565b60008135905061016a816103ee565b92915050565b60008083601f84011261018257600080fd5b8235905067ffffffffffffffff81111561019b57600080fd5b6020830191508360018202830111156101b357600080fd5b9250929050565b600080600080606085870312156101d057600080fd5b600085013567ffffffffffffffff8111156101ea57600080fd5b6101f687828801610170565b945094505060206102098782880161015b565b925050604061021a8782880161015b565b91505092959194509250565b61022f81610347565b82525050565b60006102408261031a565b61024a8185610325565b935061025a8185602086016103aa565b610263816103dd565b840191505092915050565b61027781610389565b82525050565b60006102898385610336565b935061029683858461039b565b61029f836103dd565b840190509392505050565b60006060820190506102bf6000830186610226565b81810360208301526102d18185610235565b90506102e0604083018461026e565b949350505050565b6000604082019050818103600083015261030381858761027d565b90506103126020830184610226565b949350505050565b600081519050919050565b600082825260208201905092915050565b600082825260208201905092915050565b600061035282610359565b9050919050565b600073ffffffffffffffffffffffffffffffffffffffff82169050919050565b600063ffffffff82169050919050565b600061039482610379565b9050919050565b82818337600083830152505050565b60005b838110156103c85780820151818401526020810190506103ad565b838111156103d7576000848401525b50505050565b6000601f19601f8301169050919050565b6103f781610347565b811461040257600080fd5b5056fea26469706673582212201be83c1eeac3fb6416012b8cdbfd46ed80de2acefe965cf01cf8daf6276ffa0664736f6c63430008040033",
  "linkReferences": {},
  "deployedLinkReferences": {}
}