{"contracts/FromL1_ControlL2Greeter.sol":{"FromL1_ControlL2Greeter":{"abi":[{"inputs":[{"internalType":"string","name":"_greeting","type":"string"},{"internalType":"address","name":"crossDomainMessengerAddr","type":"address"},{"internalType":"address","name":"greeterL2Addr","type":"address"}],"name":"setGreeting","outputs":[],"stateMutability":"nonpayable","type":"function"}],"evm":{"bytecode":{"linkReferences":{},"object":"608060405234801561001057600080fd5b5061043b806100206000396000f3fe608060405234801561001057600080fd5b506004361061002b5760003560e01c80638b37270914610030575b600080fd5b61004a600480360381019061004591906101ba565b61004c565b005b6060848433604051602401610063939291906102e8565b6040516020818303038152906040527f8d86c2ad000000000000000000000000000000000000000000000000000000007bffffffffffffffffffffffffffffffffffffffffffffffffffffffff19166020820180517bffffffffffffffffffffffffffffffffffffffffffffffffffffffff838183161783525050505090508273ffffffffffffffffffffffffffffffffffffffff16633dbb202b8383620f42406040518463ffffffff1660e01b8152600401610122939291906102aa565b600060405180830381600087803b15801561013c57600080fd5b505af1158015610150573d6000803e3d6000fd5b505050505050505050565b60008135905061016a816103ee565b92915050565b60008083601f84011261018257600080fd5b8235905067ffffffffffffffff81111561019b57600080fd5b6020830191508360018202830111156101b357600080fd5b9250929050565b600080600080606085870312156101d057600080fd5b600085013567ffffffffffffffff8111156101ea57600080fd5b6101f687828801610170565b945094505060206102098782880161015b565b925050604061021a8782880161015b565b91505092959194509250565b61022f81610347565b82525050565b60006102408261031a565b61024a8185610325565b935061025a8185602086016103aa565b610263816103dd565b840191505092915050565b61027781610389565b82525050565b60006102898385610336565b935061029683858461039b565b61029f836103dd565b840190509392505050565b60006060820190506102bf6000830186610226565b81810360208301526102d18185610235565b90506102e0604083018461026e565b949350505050565b6000604082019050818103600083015261030381858761027d565b90506103126020830184610226565b949350505050565b600081519050919050565b600082825260208201905092915050565b600082825260208201905092915050565b600061035282610359565b9050919050565b600073ffffffffffffffffffffffffffffffffffffffff82169050919050565b600063ffffffff82169050919050565b600061039482610379565b9050919050565b82818337600083830152505050565b60005b838110156103c85780820151818401526020810190506103ad565b838111156103d7576000848401525b50505050565b6000601f19601f8301169050919050565b6103f781610347565b811461040257600080fd5b5056fea26469706673582212201be83c1eeac3fb6416012b8cdbfd46ed80de2acefe965cf01cf8daf6276ffa0664736f6c63430008040033","opcodes":"PUSH1 0x80 PUSH1 0x40 MSTORE CALLVALUE DUP1 ISZERO PUSH2 0x10 JUMPI PUSH1 0x0 DUP1 REVERT JUMPDEST POP PUSH2 0x43B DUP1 PUSH2 0x20 PUSH1 0x0 CODECOPY PUSH1 0x0 RETURN INVALID PUSH1 0x80 PUSH1 0x40 MSTORE CALLVALUE DUP1 ISZERO PUSH2 0x10 JUMPI PUSH1 0x0 DUP1 REVERT JUMPDEST POP PUSH1 0x4 CALLDATASIZE LT PUSH2 0x2B JUMPI PUSH1 0x0 CALLDATALOAD PUSH1 0xE0 SHR DUP1 PUSH4 0x8B372709 EQ PUSH2 0x30 JUMPI JUMPDEST PUSH1 0x0 DUP1 REVERT JUMPDEST PUSH2 0x4A PUSH1 0x4 DUP1 CALLDATASIZE SUB DUP2 ADD SWAP1 PUSH2 0x45 SWAP2 SWAP1 PUSH2 0x1BA JUMP JUMPDEST PUSH2 0x4C JUMP JUMPDEST STOP JUMPDEST PUSH1 0x60 DUP5 DUP5 CALLER PUSH1 0x40 MLOAD PUSH1 0x24 ADD PUSH2 0x63 SWAP4 SWAP3 SWAP2 SWAP1 PUSH2 0x2E8 JUMP JUMPDEST PUSH1 0x40 MLOAD PUSH1 0x20 DUP2 DUP4 SUB SUB DUP2 MSTORE SWAP1 PUSH1 0x40 MSTORE PUSH32 0x8D86C2AD00000000000000000000000000000000000000000000000000000000 PUSH28 0xFFFFFFFFFFFFFFFFFFFFFFFFFFFFFFFFFFFFFFFFFFFFFFFFFFFFFFFF NOT AND PUSH1 0x20 DUP3 ADD DUP1 MLOAD PUSH28 0xFFFFFFFFFFFFFFFFFFFFFFFFFFFFFFFFFFFFFFFFFFFFFFFFFFFFFFFF DUP4 DUP2 DUP4 AND OR DUP4 MSTORE POP POP POP POP SWAP1 POP DUP3 PUSH20 0xFFFFFFFFFFFFFFFFFFFFFFFFFFFFFFFFFFFFFFFF AND PUSH4 0x3DBB202B DUP4 DUP4 PUSH3 0xF4240 PUSH1 0x40 MLOAD DUP5 PUSH4 0xFFFFFFFF AND PUSH1 0xE0 SHL DUP2 MSTORE PUSH1 0x4 ADD PUSH2 0x122 SWAP4 SWAP3 SWAP2 SWAP1 PUSH2 0x2AA JUMP JUMPDEST PUSH1 0x0 PUSH1 0x40 MLOAD DUP1 DUP4 SUB DUP2 PUSH1 0x0 DUP8 DUP1 EXTCODESIZE ISZERO DUP1 ISZERO PUSH2 0x13C JUMPI PUSH1 0x0 DUP1 REVERT JUMPDEST POP GAS CALL ISZERO DUP1 ISZERO PUSH2 0x150 JUMPI RETURNDATASIZE PUSH1 0x0 DUP1 RETURNDATACOPY RETURNDATASIZE PUSH1 0x0 REVERT JUMPDEST POP POP POP POP POP POP POP POP POP JUMP JUMPDEST PUSH1 0x0 DUP2 CALLDATALOAD SWAP1 POP PUSH2 0x16A DUP2 PUSH2 0x3EE JUMP JUMPDEST SWAP3 SWAP2 POP POP JUMP JUMPDEST PUSH1 0x0 DUP1 DUP4 PUSH1 0x1F DUP5 ADD SLT PUSH2 0x182 JUMPI PUSH1 0x0 DUP1 REVERT JUMPDEST DUP3 CALLDATALOAD SWAP1 POP PUSH8 0xFFFFFFFFFFFFFFFF DUP2 GT ISZERO PUSH2 0x19B JUMPI PUSH1 0x0 DUP1 REVERT JUMPDEST PUSH1 0x20 DUP4 ADD SWAP2 POP DUP4 PUSH1 0x1 DUP3 MUL DUP4 ADD GT ISZERO PUSH2 0x1B3 JUMPI PUSH1 0x0 DUP1 REVERT JUMPDEST SWAP3 POP SWAP3 SWAP1 POP JUMP JUMPDEST PUSH1 0x0 DUP1 PUSH1 0x0 DUP1 PUSH1 0x60 DUP6 DUP8 SUB SLT ISZERO PUSH2 0x1D0 JUMPI PUSH1 0x0 DUP1 REVERT JUMPDEST PUSH1 0x0 DUP6 ADD CALLDATALOAD PUSH8 0xFFFFFFFFFFFFFFFF DUP2 GT ISZERO PUSH2 0x1EA JUMPI PUSH1 0x0 DUP1 REVERT JUMPDEST PUSH2 0x1F6 DUP8 DUP3 DUP9 ADD PUSH2 0x170 JUMP JUMPDEST SWAP5 POP SWAP5 POP POP PUSH1 0x20 PUSH2 0x209 DUP8 DUP3 DUP9 ADD PUSH2 0x15B JUMP JUMPDEST SWAP3 POP POP PUSH1 0x40 PUSH2 0x21A DUP8 DUP3 DUP9 ADD PUSH2 0x15B JUMP JUMPDEST SWAP2 POP POP SWAP3 SWAP6 SWAP2 SWAP5 POP SWAP3 POP JUMP JUMPDEST PUSH2 0x22F DUP2 PUSH2 0x347 JUMP JUMPDEST DUP3 MSTORE POP POP JUMP JUMPDEST PUSH1 0x0 PUSH2 0x240 DUP3 PUSH2 0x31A JUMP JUMPDEST PUSH2 0x24A DUP2 DUP6 PUSH2 0x325 JUMP JUMPDEST SWAP4 POP PUSH2 0x25A DUP2 DUP6 PUSH1 0x20 DUP7 ADD PUSH2 0x3AA JUMP JUMPDEST PUSH2 0x263 DUP2 PUSH2 0x3DD JUMP JUMPDEST DUP5 ADD SWAP2 POP POP SWAP3 SWAP2 POP POP JUMP JUMPDEST PUSH2 0x277 DUP2 PUSH2 0x389 JUMP JUMPDEST DUP3 MSTORE POP POP JUMP JUMPDEST PUSH1 0x0 PUSH2 0x289 DUP4 DUP6 PUSH2 0x336 JUMP JUMPDEST SWAP4 POP PUSH2 0x296 DUP4 DUP6 DUP5 PUSH2 0x39B JUMP JUMPDEST PUSH2 0x29F DUP4 PUSH2 0x3DD JUMP JUMPDEST DUP5 ADD SWAP1 POP SWAP4 SWAP3 POP POP POP JUMP JUMPDEST PUSH1 0x0 PUSH1 0x60 DUP3 ADD SWAP1 POP PUSH2 0x2BF PUSH1 0x0 DUP4 ADD DUP7 PUSH2 0x226 JUMP JUMPDEST DUP2 DUP2 SUB PUSH1 0x20 DUP4 ADD MSTORE PUSH2 0x2D1 DUP2 DUP6 PUSH2 0x235 JUMP JUMPDEST SWAP1 POP PUSH2 0x2E0 PUSH1 0x40 DUP4 ADD DUP5 PUSH2 0x26E JUMP JUMPDEST SWAP5 SWAP4 POP POP POP POP JUMP JUMPDEST PUSH1 0x0 PUSH1 0x40 DUP3 ADD SWAP1 POP DUP2 DUP2 SUB PUSH1 0x0 DUP4 ADD MSTORE PUSH2 0x303 DUP2 DUP6 DUP8 PUSH2 0x27D JUMP JUMPDEST SWAP1 POP PUSH2 0x312 PUSH1 0x20 DUP4 ADD DUP5 PUSH2 0x226 JUMP JUMPDEST SWAP5 SWAP4 POP POP POP POP JUMP JUMPDEST PUSH1 0x0 DUP2 MLOAD SWAP1 POP SWAP2 SWAP1 POP JUMP JUMPDEST PUSH1 0x0 DUP3 DUP3 MSTORE PUSH1 0x20 DUP3 ADD SWAP1 POP SWAP3 SWAP2 POP POP JUMP JUMPDEST PUSH1 0x0 DUP3 DUP3 MSTORE PUSH1 0x20 DUP3 ADD SWAP1 POP SWAP3 SWAP2 POP POP JUMP JUMPDEST PUSH1 0x0 PUSH2 0x352 DUP3 PUSH2 0x359 JUMP JUMPDEST SWAP1 POP SWAP2 SWAP1 POP JUMP JUMPDEST PUSH1 0x0 PUSH20 0xFFFFFFFFFFFFFFFFFFFFFFFFFFFFFFFFFFFFFFFF DUP3 AND SWAP1 POP SWAP2 SWAP1 POP JUMP JUMPDEST PUSH1 0x0 PUSH4 0xFFFFFFFF DUP3 AND SWAP1 POP SWAP2 SWAP1 POP JUMP JUMPDEST PUSH1 0x0 PUSH2 0x394 DUP3 PUSH2 0x379 JUMP JUMPDEST SWAP1 POP SWAP2 SWAP1 POP JUMP JUMPDEST DUP3 DUP2 DUP4 CALLDATACOPY PUSH1 0x0 DUP4 DUP4 ADD MSTORE POP POP POP JUMP JUMPDEST PUSH1 0x0 JUMPDEST DUP4 DUP2 LT ISZERO PUSH2 0x3C8 JUMPI DUP1 DUP3 ADD MLOAD DUP2 DUP5 ADD MSTORE PUSH1 0x20 DUP2 ADD SWAP1 POP PUSH2 0x3AD JUMP JUMPDEST DUP4 DUP2 GT ISZERO PUSH2 0x3D7 JUMPI PUSH1 0x0 DUP5 DUP5 ADD MSTORE JUMPDEST POP POP POP POP JUMP JUMPDEST PUSH1 0x0 PUSH1 0x1F NOT PUSH1 0x1F DUP4 ADD AND SWAP1 POP SWAP2 SWAP1 POP JUMP JUMPDEST PUSH2 0x3F7 DUP2 PUSH2 0x347 JUMP JUMPDEST DUP2 EQ PUSH2 0x402 JUMPI PUSH1 0x0 DUP1 REVERT JUMPDEST POP JUMP INVALID LOG2 PUSH5 0x6970667358 0x22 SLT KECCAK256 SHL 0xE8 EXTCODECOPY 0x1E 0xEA 0xC3 0xFB PUSH5 0x16012B8CDB REVERT CHAINID 0xED DUP1 0xDE 0x2A 0xCE INVALID SWAP7 0x5C CREATE SHR 0xF8 0xDA 0xF6 0x27 PUSH16 0xFA0664736F6C63430008040033000000 "},"methodIdentifiers":{"setGreeting(string,address,address)":"8b372709"}}}}}