{
  "_format": "hh-sol-artifact-1",
  "contractName": "Greeter",
  "sourceName": "contracts/Greeter.sol",
  "abi": [
    {
      "inputs": [
        {
          "internalType": "string",
          "name": "_greeting",
          "type": "string"
        }
      ],
      "stateMutability": "nonpayable",
      "type": "constructor"
    },
    {
      "anonymous": false,
      "inputs": [
        {
          "indexed": false,
          "internalType": "address",
          "name": "sender",
          "type": "address"
        },
        {
          "indexed": false,
          "internalType": "address",
          "name": "origin",
          "type": "address"
        },
        {
          "indexed": false,
          "internalType": "address",
          "name": "xorigin",
          "type": "address"
        },
        {
          "indexed": false,
          "internalType": "address",
          "name": "user",
          "type": "address"
        },
        {
          "indexed": false,
          "internalType": "string",
          "name": "greeting",
          "type": "string"
        }
      ],
      "name": "SetGreeting",
      "type": "event"
    },
    {
      "inputs": [],
      "name": "greet",
      "outputs": [
        {
          "internalType": "string",
          "name": "",
          "type": "string"
        }
      ],
      "stateMutability": "view",
      "type": "function"
    },
    {
      "inputs": [
        {
          "internalType": "string",
          "name": "_greeting",
          "type": "string"
        },
        {
          "internalType": "address",
          "name": "_user",
          "type": "address"
        }
      ],
      "name": "setGreeting",
      "outputs": [],
      "stateMutability": "nonpayable",
      "type": "function"
    },
    {
      "inputs": [
        {
          "internalType": "string",
          "name": "_greeting",
          "type": "string"
        }
      ],
      "name": "setGreeting",
      "outputs": [],
      "stateMutability": "nonpayable",
      "type": "function"
    }
  ],
  "bytecode": "0x60806040523480156200001157600080fd5b5060405162000b2238038062000b22833981810160405281019062000037919062000179565b80600090805190602001906200004f92919062000057565b50506200032e565b828054620000659062000253565b90600052602060002090601f016020900481019282620000895760008555620000d5565b82601f10620000a457805160ff1916838001178555620000d5565b82800160010185558215620000d5579182015b82811115620000d4578251825591602001919060010190620000b7565b5b509050620000e49190620000e8565b5090565b5b8082111562000103576000816000905550600101620000e9565b5090565b60006200011e6200011884620001e7565b620001be565b9050828152602081018484840111156200013757600080fd5b620001448482856200021d565b509392505050565b600082601f8301126200015e57600080fd5b81516200017084826020860162000107565b91505092915050565b6000602082840312156200018c57600080fd5b600082015167ffffffffffffffff811115620001a757600080fd5b620001b5848285016200014c565b91505092915050565b6000620001ca620001dd565b9050620001d8828262000289565b919050565b6000604051905090565b600067ffffffffffffffff821115620002055762000204620002ee565b5b62000210826200031d565b9050602081019050919050565b60005b838110156200023d57808201518184015260208101905062000220565b838111156200024d576000848401525b50505050565b600060028204905060018216806200026c57607f821691505b60208210811415620002835762000282620002bf565b5b50919050565b62000294826200031d565b810181811067ffffffffffffffff82111715620002b657620002b5620002ee565b5b80604052505050565b7f4e487b7100000000000000000000000000000000000000000000000000000000600052602260045260246000fd5b7f4e487b7100000000000000000000000000000000000000000000000000000000600052604160045260246000fd5b6000601f19601f8301169050919050565b6107e4806200033e6000396000f3fe608060405234801561001057600080fd5b50600436106100415760003560e01c80638d86c2ad14610046578063a413686214610062578063cfae32171461007e575b600080fd5b610060600480360381019061005b91906104c7565b61009c565b005b61007c60048036038101906100779190610486565b6100fd565b005b61008661015e565b60405161009391906105bd565b60405180910390f35b81600090805190602001906100b2929190610328565b507ffd1fe8fb6b9b0c76d4539b55dea0c817720153be1279cefedacf48b09914498833326100de6101f0565b84866040516100f1959493929190610563565b60405180910390a15050565b8060009080519060200190610113929190610328565b507ffd1fe8fb6b9b0c76d4539b55dea0c817720153be1279cefedacf48b099144988333261013f6101f0565b600085604051610153959493929190610563565b60405180910390a150565b60606000805461016d906106c5565b80601f0160208091040260200160405190810160405280929190818152602001828054610199906106c5565b80156101e65780601f106101bb576101008083540402835291602001916101e6565b820191906000526020600020905b8154815290600101906020018083116101c957829003601f168201915b5050505050905090565b600080600090506001461415610218577325ace71c97b33cc4729cf772ae268934f7ab5fa190505b600546141561023957735086d1eef304eb5284a0f6720f79403b4e9be29490505b600a46148061024957506101a446145b156102665773420000000000000000000000000000000000000790505b8073ffffffffffffffffffffffffffffffffffffffff163373ffffffffffffffffffffffffffffffffffffffff16146102a3576000915050610325565b8073ffffffffffffffffffffffffffffffffffffffff16636e296e456040518163ffffffff1660e01b815260040160206040518083038186803b1580156102e957600080fd5b505afa1580156102fd573d6000803e3d6000fd5b505050506040513d601f19601f82011682018060405250810190610321919061045d565b9150505b90565b828054610334906106c5565b90600052602060002090601f016020900481019282610356576000855561039d565b82601f1061036f57805160ff191683800117855561039d565b8280016001018555821561039d579182015b8281111561039c578251825591602001919060010190610381565b5b5090506103aa91906103ae565b5090565b5b808211156103c75760008160009055506001016103af565b5090565b60006103de6103d984610604565b6105df565b9050828152602081018484840111156103f657600080fd5b610401848285610683565b509392505050565b60008135905061041881610797565b92915050565b60008151905061042d81610797565b92915050565b600082601f83011261044457600080fd5b81356104548482602086016103cb565b91505092915050565b60006020828403121561046f57600080fd5b600061047d8482850161041e565b91505092915050565b60006020828403121561049857600080fd5b600082013567ffffffffffffffff8111156104b257600080fd5b6104be84828501610433565b91505092915050565b600080604083850312156104da57600080fd5b600083013567ffffffffffffffff8111156104f457600080fd5b61050085828601610433565b925050602061051185828601610409565b9150509250929050565b61052481610651565b82525050565b600061053582610635565b61053f8185610640565b935061054f818560208601610692565b61055881610786565b840191505092915050565b600060a082019050610578600083018861051b565b610585602083018761051b565b610592604083018661051b565b61059f606083018561051b565b81810360808301526105b1818461052a565b90509695505050505050565b600060208201905081810360008301526105d7818461052a565b905092915050565b60006105e96105fa565b90506105f582826106f7565b919050565b6000604051905090565b600067ffffffffffffffff82111561061f5761061e610757565b5b61062882610786565b9050602081019050919050565b600081519050919050565b600082825260208201905092915050565b600061065c82610663565b9050919050565b600073ffffffffffffffffffffffffffffffffffffffff82169050919050565b82818337600083830152505050565b60005b838110156106b0578082015181840152602081019050610695565b838111156106bf576000848401525b50505050565b600060028204905060018216806106dd57607f821691505b602082108114156106f1576106f0610728565b5b50919050565b61070082610786565b810181811067ffffffffffffffff8211171561071f5761071e610757565b5b80604052505050565b7f4e487b7100000000000000000000000000000000000000000000000000000000600052602260045260246000fd5b7f4e487b7100000000000000000000000000000000000000000000000000000000600052604160045260246000fd5b6000601f19601f8301169050919050565b6107a081610651565b81146107ab57600080fd5b5056fea2646970667358221220e971b5b236f84cf130a8da61f173f6f5210e1f9def7c44f450dd102c583e599464736f6c63430008040033",
  "linkReferences": {},
  "deployedLinkReferences": {}
}