{
  "_format": "hh-sol-artifact-1",
  "contractName": "Greeter",
  "sourceName": "contracts/Greeter.sol",
  "abi": [
    {
      "inputs": [
        {
          "internalType": "string",
          "name": "_greeting",
          "type": "string"
        }
      ],
      "stateMutability": "nonpayable",
      "type": "constructor"
    },
    {
      "anonymous": false,
      "inputs": [
        {
          "indexed": false,
          "internalType": "address",
          "name": "sender",
          "type": "address"
        },
        {
          "indexed": false,
          "internalType": "address",
          "name": "origin",
          "type": "address"
        },
        {
          "indexed": false,
          "internalType": "address",
          "name": "xorigin",
          "type": "address"
        },
        {
          "indexed": false,
          "internalType": "address",
          "name": "user",
          "type": "address"
        },
        {
          "indexed": false,
          "internalType": "string",
          "name": "greeting",
          "type": "string"
        }
      ],
      "name": "SetGreeting",
      "type": "event"
    },
    {
      "inputs": [],
      "name": "greet",
      "outputs": [
        {
          "internalType": "string",
          "name": "",
          "type": "string"
        }
      ],
      "stateMutability": "view",
      "type": "function"
    },
    {
      "inputs": [
        {
          "internalType": "string",
          "name": "_greeting",
          "type": "string"
        },
        {
          "internalType": "address",
          "name": "_user",
          "type": "address"
        }
      ],
      "name": "setGreeting",
      "outputs": [],
      "stateMutability": "nonpayable",
      "type": "function"
    },
    {
      "inputs": [
        {
          "internalType": "string",
          "name": "_greeting",
          "type": "string"
        }
      ],
      "name": "setGreeting",
      "outputs": [],
      "stateMutability": "nonpayable",
      "type": "function"
    }
  ],
  "bytecode": "0x60806040523480156200001157600080fd5b5060405162000b7e38038062000b7e8339818101604052810190620000379190620002a4565b80600090805190602001906200004f92919062000057565b50506200035a565b828054620000659062000324565b90600052602060002090601f016020900481019282620000895760008555620000d5565b82601f10620000a457805160ff1916838001178555620000d5565b82800160010185558215620000d5579182015b82811115620000d4578251825591602001919060010190620000b7565b5b509050620000e49190620000e8565b5090565b5b8082111562000103576000816000905550600101620000e9565b5090565b6000604051905090565b600080fd5b600080fd5b600080fd5b600080fd5b6000601f19601f8301169050919050565b7f4e487b7100000000000000000000000000000000000000000000000000000000600052604160045260246000fd5b620001708262000125565b810181811067ffffffffffffffff8211171562000192576200019162000136565b5b80604052505050565b6000620001a762000107565b9050620001b5828262000165565b919050565b600067ffffffffffffffff821115620001d857620001d762000136565b5b620001e38262000125565b9050602081019050919050565b60005b8381101562000210578082015181840152602081019050620001f3565b8381111562000220576000848401525b50505050565b60006200023d6200023784620001ba565b6200019b565b9050828152602081018484840111156200025c576200025b62000120565b5b62000269848285620001f0565b509392505050565b600082601f8301126200028957620002886200011b565b5b81516200029b84826020860162000226565b91505092915050565b600060208284031215620002bd57620002bc62000111565b5b600082015167ffffffffffffffff811115620002de57620002dd62000116565b5b620002ec8482850162000271565b91505092915050565b7f4e487b7100000000000000000000000000000000000000000000000000000000600052602260045260246000fd5b600060028204905060018216806200033d57607f821691505b60208210811415620003545762000353620002f5565b5b50919050565b610814806200036a6000396000f3fe608060405234801561001057600080fd5b50600436106100415760003560e01c80638d86c2ad14610046578063a413686214610062578063cfae32171461007e575b600080fd5b610060600480360381019061005b9190610583565b61009c565b005b61007c600480360381019061007791906105df565b6100fd565b005b61008661015e565b60405161009391906106b0565b60405180910390f35b81600090805190602001906100b2929190610328565b507ffd1fe8fb6b9b0c76d4539b55dea0c817720153be1279cefedacf48b09914498833326100de6101f0565b84866040516100f19594939291906106e1565b60405180910390a15050565b8060009080519060200190610113929190610328565b507ffd1fe8fb6b9b0c76d4539b55dea0c817720153be1279cefedacf48b099144988333261013f6101f0565b6000856040516101539594939291906106e1565b60405180910390a150565b60606000805461016d9061076a565b80601f01602080910402602001604051908101604052809291908181526020018280546101999061076a565b80156101e65780601f106101bb576101008083540402835291602001916101e6565b820191906000526020600020905b8154815290600101906020018083116101c957829003601f168201915b5050505050905090565b600080600090506001461415610218577325ace71c97b33cc4729cf772ae268934f7ab5fa190505b600546141561023957735086d1eef304eb5284a0f6720f79403b4e9be29490505b600a46148061024957506101a446145b156102665773420000000000000000000000000000000000000790505b8073ffffffffffffffffffffffffffffffffffffffff163373ffffffffffffffffffffffffffffffffffffffff16146102a3576000915050610325565b8073ffffffffffffffffffffffffffffffffffffffff16636e296e456040518163ffffffff1660e01b815260040160206040518083038186803b1580156102e957600080fd5b505afa1580156102fd573d6000803e3d6000fd5b505050506040513d601f19601f8201168201806040525081019061032191906107b1565b9150505b90565b8280546103349061076a565b90600052602060002090601f016020900481019282610356576000855561039d565b82601f1061036f57805160ff191683800117855561039d565b8280016001018555821561039d579182015b8281111561039c578251825591602001919060010190610381565b5b5090506103aa91906103ae565b5090565b5b808211156103c75760008160009055506001016103af565b5090565b6000604051905090565b600080fd5b600080fd5b600080fd5b600080fd5b6000601f19601f8301169050919050565b7f4e487b7100000000000000000000000000000000000000000000000000000000600052604160045260246000fd5b610432826103e9565b810181811067ffffffffffffffff82111715610451576104506103fa565b5b80604052505050565b60006104646103cb565b90506104708282610429565b919050565b600067ffffffffffffffff8211156104905761048f6103fa565b5b610499826103e9565b9050602081019050919050565b82818337600083830152505050565b60006104c86104c384610475565b61045a565b9050828152602081018484840111156104e4576104e36103e4565b5b6104ef8482856104a6565b509392505050565b600082601f83011261050c5761050b6103df565b5b813561051c8482602086016104b5565b91505092915050565b600073ffffffffffffffffffffffffffffffffffffffff82169050919050565b600061055082610525565b9050919050565b61056081610545565b811461056b57600080fd5b50565b60008135905061057d81610557565b92915050565b6000806040838503121561059a576105996103d5565b5b600083013567ffffffffffffffff8111156105b8576105b76103da565b5b6105c4858286016104f7565b92505060206105d58582860161056e565b9150509250929050565b6000602082840312156105f5576105f46103d5565b5b600082013567ffffffffffffffff811115610613576106126103da565b5b61061f848285016104f7565b91505092915050565b600081519050919050565b600082825260208201905092915050565b60005b83811015610662578082015181840152602081019050610647565b83811115610671576000848401525b50505050565b600061068282610628565b61068c8185610633565b935061069c818560208601610644565b6106a5816103e9565b840191505092915050565b600060208201905081810360008301526106ca8184610677565b905092915050565b6106db81610545565b82525050565b600060a0820190506106f660008301886106d2565b61070360208301876106d2565b61071060408301866106d2565b61071d60608301856106d2565b818103608083015261072f8184610677565b90509695505050505050565b7f4e487b7100000000000000000000000000000000000000000000000000000000600052602260045260246000fd5b6000600282049050600182168061078257607f821691505b602082108114156107965761079561073b565b5b50919050565b6000815190506107ab81610557565b92915050565b6000602082840312156107c7576107c66103d5565b5b60006107d58482850161079c565b9150509291505056fea2646970667358221220b778dc5b64e0d6327b1d31e792da62b03fd96e50624ff50349a183cfaf353b1464736f6c63430008080033",
  "linkReferences": {},
  "deployedLinkReferences": {}
}